{
  "contractName": "JSFLOR_ICO",
  "abi": [
    {
      "inputs": [
        {
          "internalType": "address payable",
          "name": "_deposit",
          "type": "address"
        }
      ],
      "stateMutability": "nonpayable",
      "type": "constructor"
    },
    {
      "anonymous": false,
      "inputs": [
        {
          "indexed": true,
          "internalType": "address",
          "name": "owner",
          "type": "address"
        },
        {
          "indexed": true,
          "internalType": "address",
          "name": "spender",
          "type": "address"
        },
        {
          "indexed": false,
          "internalType": "uint256",
          "name": "value",
          "type": "uint256"
        }
      ],
      "name": "Approval",
      "type": "event"
    },
    {
      "anonymous": false,
      "inputs": [
        {
          "indexed": false,
          "internalType": "address",
          "name": "investor",
          "type": "address"
        },
        {
          "indexed": false,
          "internalType": "uint256",
          "name": "value",
          "type": "uint256"
        },
        {
          "indexed": false,
          "internalType": "uint256",
          "name": "tokens",
          "type": "uint256"
        }
      ],
      "name": "Invest",
      "type": "event"
    },
    {
      "anonymous": false,
      "inputs": [
        {
          "indexed": true,
          "internalType": "address",
          "name": "from",
          "type": "address"
        },
        {
          "indexed": true,
          "internalType": "address",
          "name": "to",
          "type": "address"
        },
        {
          "indexed": false,
          "internalType": "uint256",
          "name": "value",
          "type": "uint256"
        }
      ],
      "name": "Transfer",
      "type": "event"
    },
    {
      "inputs": [],
      "name": "admin",
      "outputs": [
        {
          "internalType": "address",
          "name": "",
          "type": "address"
        }
      ],
      "stateMutability": "view",
      "type": "function",
      "constant": true
    },
    {
      "inputs": [
        {
          "internalType": "address",
          "name": "owner",
          "type": "address"
        },
        {
          "internalType": "address",
          "name": "spender",
          "type": "address"
        }
      ],
      "name": "allowance",
      "outputs": [
        {
          "internalType": "uint256",
          "name": "",
          "type": "uint256"
        }
      ],
      "stateMutability": "view",
      "type": "function",
      "constant": true
    },
    {
      "inputs": [
        {
          "internalType": "address",
          "name": "",
          "type": "address"
        },
        {
          "internalType": "address",
          "name": "",
          "type": "address"
        }
      ],
      "name": "allowed",
      "outputs": [
        {
          "internalType": "uint256",
          "name": "",
          "type": "uint256"
        }
      ],
      "stateMutability": "view",
      "type": "function",
      "constant": true
    },
    {
      "inputs": [
        {
          "internalType": "address",
          "name": "spender",
          "type": "address"
        },
        {
          "internalType": "uint256",
          "name": "amount",
          "type": "uint256"
        }
      ],
      "name": "approve",
      "outputs": [
        {
          "internalType": "bool",
          "name": "",
          "type": "bool"
        }
      ],
      "stateMutability": "nonpayable",
      "type": "function"
    },
    {
      "inputs": [
        {
          "internalType": "address",
          "name": "account",
          "type": "address"
        }
      ],
      "name": "balanceOf",
      "outputs": [
        {
          "internalType": "uint256",
          "name": "",
          "type": "uint256"
        }
      ],
      "stateMutability": "view",
      "type": "function",
      "constant": true
    },
    {
      "inputs": [
        {
          "internalType": "address",
          "name": "",
          "type": "address"
        }
      ],
      "name": "balances",
      "outputs": [
        {
          "internalType": "uint256",
          "name": "",
          "type": "uint256"
        }
      ],
      "stateMutability": "view",
      "type": "function",
      "constant": true
    },
    {
      "inputs": [],
      "name": "decimals",
      "outputs": [
        {
          "internalType": "uint256",
          "name": "",
          "type": "uint256"
        }
      ],
      "stateMutability": "view",
      "type": "function",
      "constant": true
    },
    {
      "inputs": [],
      "name": "deposit",
      "outputs": [
        {
          "internalType": "address payable",
          "name": "",
          "type": "address"
        }
      ],
      "stateMutability": "view",
      "type": "function",
      "constant": true
    },
    {
      "inputs": [],
      "name": "founder",
      "outputs": [
        {
          "internalType": "address",
          "name": "",
          "type": "address"
        }
      ],
      "stateMutability": "view",
      "type": "function",
      "constant": true
    },
    {
      "inputs": [],
      "name": "hardCap",
      "outputs": [
        {
          "internalType": "uint256",
          "name": "",
          "type": "uint256"
        }
      ],
      "stateMutability": "view",
      "type": "function",
      "constant": true
    },
    {
      "inputs": [],
      "name": "icoState",
      "outputs": [
        {
          "internalType": "enum JSFLOR_ICO.State",
          "name": "",
          "type": "uint8"
        }
      ],
      "stateMutability": "view",
      "type": "function",
      "constant": true
    },
    {
      "inputs": [],
      "name": "maxInvestment",
      "outputs": [
        {
          "internalType": "uint256",
          "name": "",
          "type": "uint256"
        }
      ],
      "stateMutability": "view",
      "type": "function",
      "constant": true
    },
    {
      "inputs": [],
      "name": "minInvestment",
      "outputs": [
        {
          "internalType": "uint256",
          "name": "",
          "type": "uint256"
        }
      ],
      "stateMutability": "view",
      "type": "function",
      "constant": true
    },
    {
      "inputs": [],
      "name": "name",
      "outputs": [
        {
          "internalType": "string",
          "name": "",
          "type": "string"
        }
      ],
      "stateMutability": "view",
      "type": "function",
      "constant": true
    },
    {
      "inputs": [],
      "name": "raisedAmount",
      "outputs": [
        {
          "internalType": "uint256",
          "name": "",
          "type": "uint256"
        }
      ],
      "stateMutability": "view",
      "type": "function",
      "constant": true
    },
    {
      "inputs": [],
      "name": "saleEnd",
      "outputs": [
        {
          "internalType": "uint256",
          "name": "",
          "type": "uint256"
        }
      ],
      "stateMutability": "view",
      "type": "function",
      "constant": true
    },
    {
      "inputs": [],
      "name": "saleStart",
      "outputs": [
        {
          "internalType": "uint256",
          "name": "",
          "type": "uint256"
        }
      ],
      "stateMutability": "view",
      "type": "function",
      "constant": true
    },
    {
      "inputs": [],
      "name": "symbol",
      "outputs": [
        {
          "internalType": "string",
          "name": "",
          "type": "string"
        }
      ],
      "stateMutability": "view",
      "type": "function",
      "constant": true
    },
    {
      "inputs": [],
      "name": "tokenPrice",
      "outputs": [
        {
          "internalType": "uint256",
          "name": "",
          "type": "uint256"
        }
      ],
      "stateMutability": "view",
      "type": "function",
      "constant": true
    },
    {
      "inputs": [],
      "name": "tokenTradeStart",
      "outputs": [
        {
          "internalType": "uint256",
          "name": "",
          "type": "uint256"
        }
      ],
      "stateMutability": "view",
      "type": "function",
      "constant": true
    },
    {
      "inputs": [],
      "name": "totalSupply",
      "outputs": [
        {
          "internalType": "uint256",
          "name": "",
          "type": "uint256"
        }
      ],
      "stateMutability": "view",
      "type": "function",
      "constant": true
    },
    {
      "stateMutability": "payable",
      "type": "receive",
      "payable": true
    },
    {
      "inputs": [],
      "name": "halt",
      "outputs": [],
      "stateMutability": "nonpayable",
      "type": "function"
    },
    {
      "inputs": [],
      "name": "resume",
      "outputs": [],
      "stateMutability": "nonpayable",
      "type": "function"
    },
    {
      "inputs": [
        {
          "internalType": "address payable",
          "name": "newDeposit",
          "type": "address"
        }
      ],
      "name": "changeDepositAddress",
      "outputs": [],
      "stateMutability": "nonpayable",
      "type": "function"
    },
    {
      "inputs": [],
      "name": "getCurrentState",
      "outputs": [
        {
          "internalType": "enum JSFLOR_ICO.State",
          "name": "",
          "type": "uint8"
        }
      ],
      "stateMutability": "view",
      "type": "function",
      "constant": true
    },
    {
      "inputs": [],
      "name": "invest",
      "outputs": [
        {
          "internalType": "bool",
          "name": "",
          "type": "bool"
        }
      ],
      "stateMutability": "payable",
      "type": "function",
      "payable": true
    },
    {
      "inputs": [
        {
          "internalType": "address",
          "name": "recipient",
          "type": "address"
        },
        {
          "internalType": "uint256",
          "name": "amount",
          "type": "uint256"
        }
      ],
      "name": "transfer",
      "outputs": [
        {
          "internalType": "bool",
          "name": "",
          "type": "bool"
        }
      ],
      "stateMutability": "nonpayable",
      "type": "function"
    },
    {
      "inputs": [
        {
          "internalType": "address",
          "name": "sender",
          "type": "address"
        },
        {
          "internalType": "address",
          "name": "recipient",
          "type": "address"
        },
        {
          "internalType": "uint256",
          "name": "amount",
          "type": "uint256"
        }
      ],
      "name": "transferFrom",
      "outputs": [
        {
          "internalType": "bool",
          "name": "",
          "type": "bool"
        }
      ],
      "stateMutability": "nonpayable",
      "type": "function"
    },
    {
      "inputs": [],
      "name": "burn",
      "outputs": [
        {
          "internalType": "bool",
          "name": "",
          "type": "bool"
        }
      ],
      "stateMutability": "nonpayable",
      "type": "function"
    }
  ],
  "bytecode": "0x60806040526040518060400160405280600681526020017f4a53464c4f5200000000000000000000000000000000000000000000000000008152506000908051906020019062000051929190620002a1565b506040518060400160405280600381526020017f4a53460000000000000000000000000000000000000000000000000000000000815250600190805190602001906200009f929190620002a1565b50600060025566038d7ea4c68000600955681043561a8829300000600a5542600c556301e1338042620000d391906200038a565b600d5562093a80600d54620000e991906200038a565b600e55674563918244f40000600f5567016345785d8a00006010553480156200011157600080fd5b5060405162001f7438038062001f74833981810160405281019062000137919062000451565b620f424060038190555033600460006101000a81548173ffffffffffffffffffffffffffffffffffffffff021916908373ffffffffffffffffffffffffffffffffffffffff16021790555060035460056000600460009054906101000a900473ffffffffffffffffffffffffffffffffffffffff1673ffffffffffffffffffffffffffffffffffffffff1673ffffffffffffffffffffffffffffffffffffffff1681526020019081526020016000208190555080600860006101000a81548173ffffffffffffffffffffffffffffffffffffffff021916908373ffffffffffffffffffffffffffffffffffffffff16021790555033600760006101000a81548173ffffffffffffffffffffffffffffffffffffffff021916908373ffffffffffffffffffffffffffffffffffffffff1602179055506000601160006101000a81548160ff0219169083600381111562000295576200029462000483565b5b02179055505062000517565b828054620002af90620004e1565b90600052602060002090601f016020900481019282620002d357600085556200031f565b82601f10620002ee57805160ff19168380011785556200031f565b828001600101855582156200031f579182015b828111156200031e57825182559160200191906001019062000301565b5b5090506200032e919062000332565b5090565b5b808211156200034d57600081600090555060010162000333565b5090565b6000819050919050565b7f4e487b7100000000000000000000000000000000000000000000000000000000600052601160045260246000fd5b6000620003978262000351565b9150620003a48362000351565b9250827fffffffffffffffffffffffffffffffffffffffffffffffffffffffffffffffff03821115620003dc57620003db6200035b565b5b828201905092915050565b600080fd5b600073ffffffffffffffffffffffffffffffffffffffff82169050919050565b60006200041982620003ec565b9050919050565b6200042b816200040c565b81146200043757600080fd5b50565b6000815190506200044b8162000420565b92915050565b6000602082840312156200046a5762000469620003e7565b5b60006200047a848285016200043a565b91505092915050565b7f4e487b7100000000000000000000000000000000000000000000000000000000600052602160045260246000fd5b7f4e487b7100000000000000000000000000000000000000000000000000000000600052602260045260246000fd5b60006002820490506001821680620004fa57607f821691505b60208210811415620005115762000510620004b2565b5b50919050565b611a4d80620005276000396000f3fe6080604052600436106101c55760003560e01c80636d58c88f116100f7578063c10b935811610095578063dd62ed3e11610064578063dd62ed3e1461064f578063e8b5e51f1461068c578063f851a440146106aa578063fb86a404146106d5576101d5565b8063c10b9358146105a3578063c59ee1dc146105ce578063cc9ba583146105f9578063d0e30db014610624576101d5565b80638ac2c680116100d15780638ac2c680146104e557806395d89b4114610510578063a9059cbb1461053b578063ab0bcc4114610578576101d5565b80636d58c88f1461045457806370a082311461047d5780637ff9b596146104ba576101d5565b8063313ce5671161016457806344f387561161013e57806344f38756146103aa5780634d853ee5146103d55780635c658165146104005780635ed7ca5b1461043d576101d5565b8063313ce56714610329578063378aa7011461035457806344df8e701461037f576101d5565b8063095ea7b3116101a0578063095ea7b31461024757806318160ddd1461028457806323b872dd146102af57806327e235e3146102ec576101d5565b80622e1316146101da578063046f7da21461020557806306fdde031461021c576101d5565b366101d5576101d2610700565b50005b600080fd5b3480156101e657600080fd5b506101ef610946565b6040516101fc919061147a565b60405180910390f35b34801561021157600080fd5b5061021a61094c565b005b34801561022857600080fd5b506102316109d3565b60405161023e919061152e565b60405180910390f35b34801561025357600080fd5b5061026e600480360381019061026991906115df565b610a61565b60405161027b919061163a565b60405180910390f35b34801561029057600080fd5b50610299610bac565b6040516102a6919061147a565b60405180910390f35b3480156102bb57600080fd5b506102d660048036038101906102d19190611655565b610bb2565b6040516102e3919061163a565b60405180910390f35b3480156102f857600080fd5b50610313600480360381019061030e91906116a8565b610bd9565b604051610320919061147a565b60405180910390f35b34801561033557600080fd5b5061033e610bf1565b60405161034b919061147a565b60405180910390f35b34801561036057600080fd5b50610369610bf7565b604051610376919061174c565b60405180910390f35b34801561038b57600080fd5b50610394610c7a565b6040516103a1919061163a565b60405180910390f35b3480156103b657600080fd5b506103bf610d5b565b6040516103cc919061174c565b60405180910390f35b3480156103e157600080fd5b506103ea610d6e565b6040516103f79190611776565b60405180910390f35b34801561040c57600080fd5b5061042760048036038101906104229190611791565b610d94565b604051610434919061147a565b60405180910390f35b34801561044957600080fd5b50610452610db9565b005b34801561046057600080fd5b5061047b6004803603810190610476919061180f565b610e40565b005b34801561048957600080fd5b506104a4600480360381019061049f91906116a8565b610ede565b6040516104b1919061147a565b60405180910390f35b3480156104c657600080fd5b506104cf610f27565b6040516104dc919061147a565b60405180910390f35b3480156104f157600080fd5b506104fa610f2d565b604051610507919061147a565b60405180910390f35b34801561051c57600080fd5b50610525610f33565b604051610532919061152e565b60405180910390f35b34801561054757600080fd5b50610562600480360381019061055d91906115df565b610fc1565b60405161056f919061163a565b60405180910390f35b34801561058457600080fd5b5061058d610fe6565b60405161059a919061147a565b60405180910390f35b3480156105af57600080fd5b506105b8610fec565b6040516105c5919061147a565b60405180910390f35b3480156105da57600080fd5b506105e3610ff2565b6040516105f0919061147a565b60405180910390f35b34801561060557600080fd5b5061060e610ff8565b60405161061b919061147a565b60405180910390f35b34801561063057600080fd5b50610639610ffe565b604051610646919061184b565b60405180910390f35b34801561065b57600080fd5b5061067660048036038101906106719190611791565b611024565b604051610683919061147a565b60405180910390f35b610694610700565b6040516106a1919061163a565b60405180910390f35b3480156106b657600080fd5b506106bf6110ab565b6040516106cc9190611776565b60405180910390f35b3480156106e157600080fd5b506106ea6110d1565b6040516106f7919061147a565b60405180910390f35b600061070a610bf7565b601160006101000a81548160ff0219169083600381111561072e5761072d6116d5565b5b021790555060016003811115610747576107466116d5565b5b601160009054906101000a900460ff166003811115610769576107686116d5565b5b1461077357600080fd5b60105434101580156107875750600f543411155b61079057600080fd5b34600b60008282546107a29190611895565b92505081905550600a54600b5411156107ba57600080fd5b6000600954346107ca919061191a565b905080600560003373ffffffffffffffffffffffffffffffffffffffff1673ffffffffffffffffffffffffffffffffffffffff168152602001908152602001600020600082825461081b9190611895565b925050819055508060056000600460009054906101000a900473ffffffffffffffffffffffffffffffffffffffff1673ffffffffffffffffffffffffffffffffffffffff1673ffffffffffffffffffffffffffffffffffffffff1681526020019081526020016000206000828254610893919061194b565b92505081905550600860009054906101000a900473ffffffffffffffffffffffffffffffffffffffff1673ffffffffffffffffffffffffffffffffffffffff166108fc349081150290604051600060405180830381858888f19350505050158015610902573d6000803e3d6000fd5b507f4ae4bd7655e0d350876a23cd90c4227b13db560e34435c6a488150a9c844bf5f3334836040516109369392919061197f565b60405180910390a1600191505090565b600f5481565b600760009054906101000a900473ffffffffffffffffffffffffffffffffffffffff1673ffffffffffffffffffffffffffffffffffffffff163373ffffffffffffffffffffffffffffffffffffffff16146109a657600080fd5b6001601160006101000a81548160ff021916908360038111156109cc576109cb6116d5565b5b0217905550565b600080546109e0906119e5565b80601f0160208091040260200160405190810160405280929190818152602001828054610a0c906119e5565b8015610a595780601f10610a2e57610100808354040283529160200191610a59565b820191906000526020600020905b815481529060010190602001808311610a3c57829003601f168201915b505050505081565b600081600560003373ffffffffffffffffffffffffffffffffffffffff1673ffffffffffffffffffffffffffffffffffffffff168152602001908152602001600020541015610aaf57600080fd5b60008211610abc57600080fd5b81600660003373ffffffffffffffffffffffffffffffffffffffff1673ffffffffffffffffffffffffffffffffffffffff16815260200190815260200160002060008573ffffffffffffffffffffffffffffffffffffffff1673ffffffffffffffffffffffffffffffffffffffff168152602001908152602001600020819055508273ffffffffffffffffffffffffffffffffffffffff163373ffffffffffffffffffffffffffffffffffffffff167f8c5be1e5ebec7d5bd14f71427d1e84f3dd0314c0f7b2291e5b200ac8c7c3b92584604051610b9a919061147a565b60405180910390a36001905092915050565b60035481565b6000600e544211610bc257600080fd5b610bcd8484846110d7565b50600190509392505050565b60056020528060005260406000206000915090505481565b60025481565b6000600380811115610c0c57610c0b6116d5565b5b601160009054906101000a900460ff166003811115610c2e57610c2d6116d5565b5b1415610c3d5760039050610c77565b600c54421015610c505760009050610c77565b600c544210158015610c645750600d544211155b15610c725760019050610c77565b600290505b90565b6000610c84610bf7565b601160006101000a81548160ff02191690836003811115610ca857610ca76116d5565b5b021790555060026003811115610cc157610cc06116d5565b5b601160009054906101000a900460ff166003811115610ce357610ce26116d5565b5b14610ced57600080fd5b600060056000600460009054906101000a900473ffffffffffffffffffffffffffffffffffffffff1673ffffffffffffffffffffffffffffffffffffffff1673ffffffffffffffffffffffffffffffffffffffff168152602001908152602001600020819055506001905090565b601160009054906101000a900460ff1681565b600460009054906101000a900473ffffffffffffffffffffffffffffffffffffffff1681565b6006602052816000526040600020602052806000526040600020600091509150505481565b600760009054906101000a900473ffffffffffffffffffffffffffffffffffffffff1673ffffffffffffffffffffffffffffffffffffffff163373ffffffffffffffffffffffffffffffffffffffff1614610e1357600080fd5b6003601160006101000a81548160ff02191690836003811115610e3957610e386116d5565b5b0217905550565b600760009054906101000a900473ffffffffffffffffffffffffffffffffffffffff1673ffffffffffffffffffffffffffffffffffffffff163373ffffffffffffffffffffffffffffffffffffffff1614610e9a57600080fd5b80600860006101000a81548173ffffffffffffffffffffffffffffffffffffffff021916908373ffffffffffffffffffffffffffffffffffffffff16021790555050565b6000600560008373ffffffffffffffffffffffffffffffffffffffff1673ffffffffffffffffffffffffffffffffffffffff168152602001908152602001600020549050919050565b60095481565b60105481565b60018054610f40906119e5565b80601f0160208091040260200160405190810160405280929190818152602001828054610f6c906119e5565b8015610fb95780601f10610f8e57610100808354040283529160200191610fb9565b820191906000526020600020905b815481529060010190602001808311610f9c57829003601f168201915b505050505081565b6000600e544211610fd157600080fd5b610fdb83836112f8565b506001905092915050565b600c5481565b600d5481565b600b5481565b600e5481565b600860009054906101000a900473ffffffffffffffffffffffffffffffffffffffff1681565b6000600660008473ffffffffffffffffffffffffffffffffffffffff1673ffffffffffffffffffffffffffffffffffffffff16815260200190815260200160002060008373ffffffffffffffffffffffffffffffffffffffff1673ffffffffffffffffffffffffffffffffffffffff16815260200190815260200160002054905092915050565b600760009054906101000a900473ffffffffffffffffffffffffffffffffffffffff1681565b600a5481565b600081600660008673ffffffffffffffffffffffffffffffffffffffff1673ffffffffffffffffffffffffffffffffffffffff16815260200190815260200160002060008573ffffffffffffffffffffffffffffffffffffffff1673ffffffffffffffffffffffffffffffffffffffff16815260200190815260200160002054101561116257600080fd5b81600560008673ffffffffffffffffffffffffffffffffffffffff1673ffffffffffffffffffffffffffffffffffffffff1681526020019081526020016000205410156111ae57600080fd5b81600560008673ffffffffffffffffffffffffffffffffffffffff1673ffffffffffffffffffffffffffffffffffffffff16815260200190815260200160002060008282546111fd919061194b565b9250508190555081600560008573ffffffffffffffffffffffffffffffffffffffff1673ffffffffffffffffffffffffffffffffffffffff16815260200190815260200160002060008282546112539190611895565b9250508190555081600660008673ffffffffffffffffffffffffffffffffffffffff1673ffffffffffffffffffffffffffffffffffffffff16815260200190815260200160002060008573ffffffffffffffffffffffffffffffffffffffff1673ffffffffffffffffffffffffffffffffffffffff16815260200190815260200160002060008282546112e6919061194b565b92505081905550600190509392505050565b600081600560003373ffffffffffffffffffffffffffffffffffffffff1673ffffffffffffffffffffffffffffffffffffffff16815260200190815260200160002054101561134657600080fd5b81600560008573ffffffffffffffffffffffffffffffffffffffff1673ffffffffffffffffffffffffffffffffffffffff16815260200190815260200160002060008282546113959190611895565b9250508190555081600560003373ffffffffffffffffffffffffffffffffffffffff1673ffffffffffffffffffffffffffffffffffffffff16815260200190815260200160002060008282546113eb919061194b565b925050819055508273ffffffffffffffffffffffffffffffffffffffff163373ffffffffffffffffffffffffffffffffffffffff167fddf252ad1be2c89b69c2b068fc378daa952ba7f163c4a11628f55a4df523b3ef8460405161144f919061147a565b60405180910390a36001905092915050565b6000819050919050565b61147481611461565b82525050565b600060208201905061148f600083018461146b565b92915050565b600081519050919050565b600082825260208201905092915050565b60005b838110156114cf5780820151818401526020810190506114b4565b838111156114de576000848401525b50505050565b6000601f19601f8301169050919050565b600061150082611495565b61150a81856114a0565b935061151a8185602086016114b1565b611523816114e4565b840191505092915050565b6000602082019050818103600083015261154881846114f5565b905092915050565b600080fd5b600073ffffffffffffffffffffffffffffffffffffffff82169050919050565b600061158082611555565b9050919050565b61159081611575565b811461159b57600080fd5b50565b6000813590506115ad81611587565b92915050565b6115bc81611461565b81146115c757600080fd5b50565b6000813590506115d9816115b3565b92915050565b600080604083850312156115f6576115f5611550565b5b60006116048582860161159e565b9250506020611615858286016115ca565b9150509250929050565b60008115159050919050565b6116348161161f565b82525050565b600060208201905061164f600083018461162b565b92915050565b60008060006060848603121561166e5761166d611550565b5b600061167c8682870161159e565b935050602061168d8682870161159e565b925050604061169e868287016115ca565b9150509250925092565b6000602082840312156116be576116bd611550565b5b60006116cc8482850161159e565b91505092915050565b7f4e487b7100000000000000000000000000000000000000000000000000000000600052602160045260246000fd5b60048110611715576117146116d5565b5b50565b600081905061172682611704565b919050565b600061173682611718565b9050919050565b6117468161172b565b82525050565b6000602082019050611761600083018461173d565b92915050565b61177081611575565b82525050565b600060208201905061178b6000830184611767565b92915050565b600080604083850312156117a8576117a7611550565b5b60006117b68582860161159e565b92505060206117c78582860161159e565b9150509250929050565b60006117dc82611555565b9050919050565b6117ec816117d1565b81146117f757600080fd5b50565b600081359050611809816117e3565b92915050565b60006020828403121561182557611824611550565b5b6000611833848285016117fa565b91505092915050565b611845816117d1565b82525050565b6000602082019050611860600083018461183c565b92915050565b7f4e487b7100000000000000000000000000000000000000000000000000000000600052601160045260246000fd5b60006118a082611461565b91506118ab83611461565b9250827fffffffffffffffffffffffffffffffffffffffffffffffffffffffffffffffff038211156118e0576118df611866565b5b828201905092915050565b7f4e487b7100000000000000000000000000000000000000000000000000000000600052601260045260246000fd5b600061192582611461565b915061193083611461565b9250826119405761193f6118eb565b5b828204905092915050565b600061195682611461565b915061196183611461565b92508282101561197457611973611866565b5b828203905092915050565b60006060820190506119946000830186611767565b6119a1602083018561146b565b6119ae604083018461146b565b949350505050565b7f4e487b7100000000000000000000000000000000000000000000000000000000600052602260045260246000fd5b600060028204905060018216806119fd57607f821691505b60208210811415611a1157611a106119b6565b5b5091905056fea2646970667358221220f2665dc0a3ae4db654866561151c4031fbdda86f0bb1b91d565513d834521f4864736f6c634300080b0033",
  "immutableReferences": {},
  "source": "// SPDX-License-Identifier: MIT\n// OpenZeppelin Contracts v4.4.1 (token/ERC20/IERC20.sol)\n\npragma solidity ^0.8.0;\n\n/**\n * @dev Interface of the ERC20 standard as defined in the EIP.\n */\ninterface IERC20 {\n    /**\n     * @dev Returns the amount of tokens in existence.\n     */\n    function totalSupply() external view returns (uint256);\n\n    /**\n     * @dev Returns the amount of tokens owned by `account`.\n     */\n    function balanceOf(address account) external view returns (uint256);\n\n    /**\n     * @dev Moves `amount` tokens from the caller's account to `recipient`.\n     *\n     * Returns a boolean value indicating whether the operation succeeded.\n     *\n     * Emits a {Transfer} event.\n     */\n    function transfer(address recipient, uint256 amount) external returns (bool);\n\n    /**\n     * @dev Returns the remaining number of tokens that `spender` will be\n     * allowed to spend on behalf of `owner` through {transferFrom}. This is\n     * zero by default.\n     *\n     * This value changes when {approve} or {transferFrom} are called.\n     */\n    function allowance(address owner, address spender) external view returns (uint256);\n\n    /**\n     * @dev Sets `amount` as the allowance of `spender` over the caller's tokens.\n     *\n     * Returns a boolean value indicating whether the operation succeeded.\n     *\n     * IMPORTANT: Beware that changing an allowance with this method brings the risk\n     * that someone may use both the old and the new allowance by unfortunate\n     * transaction ordering. One possible solution to mitigate this race\n     * condition is to first reduce the spender's allowance to 0 and set the\n     * desired value afterwards:\n     * https://github.com/ethereum/EIPs/issues/20#issuecomment-263524729\n     *\n     * Emits an {Approval} event.\n     */\n    function approve(address spender, uint256 amount) external returns (bool);\n\n    /**\n     * @dev Moves `amount` tokens from `sender` to `recipient` using the\n     * allowance mechanism. `amount` is then deducted from the caller's\n     * allowance.\n     *\n     * Returns a boolean value indicating whether the operation succeeded.\n     *\n     * Emits a {Transfer} event.\n     */\n    function transferFrom(address sender, address recipient, uint256 amount) external returns (bool);\n\n    /**\n     * @dev Emitted when `value` tokens are moved from one account (`from`) to\n     * another (`to`).\n     *\n     * Note that `value` may be zero.\n     */\n    event Transfer(address indexed from, address indexed to, uint256 value);\n\n    /**\n     * @dev Emitted when the allowance of a `spender` for an `owner` is set by\n     * a call to {approve}. `value` is the new allowance.\n     */\n    event Approval(address indexed owner, address indexed spender, uint256 value);\n}\n\ncontract JSFLOR is IERC20 {\n    string public name = \"JSFLOR\";\n    string public symbol = \"JSF\";\n    uint public decimals = 0;\n    uint public override totalSupply;\n\n    address public founder;\n\n    mapping(address => uint) public balances;\n\n    mapping(address => mapping(address => uint)) public allowed;\n\n    constructor() {\n        totalSupply = 1000000;\n        founder = msg.sender;\n        balances[founder] = totalSupply;\n    }\n\n    function balanceOf(address account) external view override returns (uint256) {\n        return balances[account];\n    }\n\n    function transfer(address recipient, uint256 amount) public virtual override returns (bool) {\n        require(balances[msg.sender] >= amount);\n\n        balances[recipient] += amount;\n        balances[msg.sender] -= amount;\n\n        emit Transfer(msg.sender, recipient, amount);\n\n        return true;\n    }\n\n    function allowance(address owner, address spender) external view override returns (uint256) {\n        return allowed[owner][spender];\n    }\n\n    function approve(address spender, uint256 amount) external override returns (bool) {\n        require(balances[msg.sender] >= amount);\n        require(amount > 0);\n\n        allowed[msg.sender][spender] = amount;\n\n        emit Approval(msg.sender, spender, amount);\n\n        return true;\n    }\n\n    function transferFrom(address sender, address recipient, uint256 amount) public virtual override returns (bool) {\n        require(allowed[sender][recipient] >= amount);\n        require(balances[sender] >= amount);\n\n        balances[sender] -= amount;\n        balances[recipient] += amount;\n        allowed[sender][recipient] -= amount;\n\n        return true;\n    }\n}\n\ncontract JSFLOR_ICO is JSFLOR {\n    address public admin;\n    address payable public deposit;\n    uint public tokenPrice = 0.001 ether; // 1ETH = 1000MCT, 1MCT = 0.001ETH\n    uint public hardCap = 300 ether;\n    uint public raisedAmount;\n    uint public saleStart = block.timestamp; // Will start when deployed\n    uint public saleEnd = block.timestamp + 31536000; // ICO ends in one year\n    uint public tokenTradeStart = saleEnd + 604800; // transferable in a week after sales end\n    uint public maxInvestment = 5 ether;\n    uint public minInvestment = 0.1 ether;\n\n    enum State {BeforeStart, Running, AfterEnd, Halted}\n    State public icoState;\n\n    constructor(address payable _deposit) {\n      deposit = _deposit;\n      admin = msg.sender;\n      icoState = State.BeforeStart;\n    }\n\n    receive() payable external {\n      invest();\n    }\n\n    modifier onlyAdmin() {\n      require(msg.sender == admin);\n      _;\n    }\n\n    event Invest(address investor, uint value, uint tokens);\n\n    function halt() public onlyAdmin {\n      icoState = State.Halted;\n    }\n\n    function resume() public onlyAdmin {\n      icoState = State.Running;\n    }\n\n    function changeDepositAddress(address payable newDeposit) public onlyAdmin {\n      deposit = newDeposit;\n    }\n\n    function getCurrentState() public view returns (State) {\n      if (icoState == State.Halted) {\n        return State.Halted;\n      } else if (block.timestamp < saleStart) {\n        return State.BeforeStart;\n      } else if (block.timestamp >= saleStart && block.timestamp <= saleEnd) {\n        return State.Running;\n      } else {\n        return State.AfterEnd;\n      }\n    }\n\n    function invest() public payable returns (bool) {\n      icoState = getCurrentState();\n      require(icoState == State.Running);\n      require(msg.value >= minInvestment && msg.value <= maxInvestment);\n\n      raisedAmount += msg.value;\n      require(raisedAmount <= hardCap);\n\n      uint tokens = msg.value / tokenPrice;\n\n      balances[msg.sender] += tokens;\n      balances[founder] -= tokens;\n      deposit.transfer(msg.value);\n\n      emit Invest(msg.sender, msg.value, tokens);\n\n      return true;\n    }\n\n    function transfer(address recipient, uint256 amount) public override returns (bool) {\n      require(block.timestamp > tokenTradeStart);\n      super.transfer(recipient, amount); // same as JSFLOR.transfer(recipient, amount);\n      return true;\n    }\n\n    function transferFrom(address sender, address recipient, uint256 amount) public override returns (bool) {\n      require(block.timestamp > tokenTradeStart);\n      super.transferFrom(sender, recipient, amount); // same as JSFLOR.transferFrom(sender, recipient, amount);\n      return true;\n    }\n\n    function burn() public returns (bool) {\n      icoState = getCurrentState();\n      require(icoState == State.AfterEnd);\n      balances[founder] = 0;\n      return true;\n    }\n}",
  "sourcePath": "/Users/sebastianflor/workspace/jsflor/ico/contracts/ICO.sol",
  "compiler": {
    "name": "solc",
    "version": "0.8.11+commit.d7f03943.Emscripten.clang"
  },
  "schemaVersion": "3.4.4",
  "updatedAt": "2022-02-03T12:31:59.642Z",
  "networkType": "ethereum",
  "devdoc": {
    "kind": "dev",
    "methods": {
      "allowance(address,address)": {
        "details": "Returns the remaining number of tokens that `spender` will be allowed to spend on behalf of `owner` through {transferFrom}. This is zero by default. This value changes when {approve} or {transferFrom} are called."
      },
      "approve(address,uint256)": {
        "details": "Sets `amount` as the allowance of `spender` over the caller's tokens. Returns a boolean value indicating whether the operation succeeded. IMPORTANT: Beware that changing an allowance with this method brings the risk that someone may use both the old and the new allowance by unfortunate transaction ordering. One possible solution to mitigate this race condition is to first reduce the spender's allowance to 0 and set the desired value afterwards: https://github.com/ethereum/EIPs/issues/20#issuecomment-263524729 Emits an {Approval} event."
      },
      "balanceOf(address)": {
        "details": "Returns the amount of tokens owned by `account`."
      },
      "transfer(address,uint256)": {
        "details": "Moves `amount` tokens from the caller's account to `recipient`. Returns a boolean value indicating whether the operation succeeded. Emits a {Transfer} event."
      },
      "transferFrom(address,address,uint256)": {
        "details": "Moves `amount` tokens from `sender` to `recipient` using the allowance mechanism. `amount` is then deducted from the caller's allowance. Returns a boolean value indicating whether the operation succeeded. Emits a {Transfer} event."
      }
    },
    "version": 1
  },
  "userdoc": {
    "kind": "user",
    "methods": {},
    "version": 1
  }
}